:020000040000fa
:080000000002040000000000f2
:020000040000fa
:04000800b003000041
:020000040000fa
:04000c00c20300002b
:020000040000fa
:04001000da0300000f
:020000040000fa
:04001400b80300002d
:020000040000fa
:04001800ca03000017
:020000040000fa
:04001c00d20300000b
:020000040000fa
:04002000e2030000f7
:020000040000fa
:040024003e06000094
:020000040000fa
:040028003e06000090
:020000040000fa
:04002c003e0600008c
:020000040000fa
:040030003e06000088
:020000040000fa
:040034003e06000084
:020000040000fa
:040038003e06000080
:020000040000fa
:04003c003e0600007c
:020000040000fa
:040040003e06000078
:020000040000fa
:040044003e06000074
:020000040000fa
:040048003e06000070
:020000040000fa
:04004c003e0600006c
:020000040000fa
:040050003e06000068
:020000040000fa
:040054005403000051
:020000040000fa
:04005800fe020000a4
:020000040000fa
:04005c003e0600005c
:020000040000fa
:040060003e06000058
:020000040000fa
:040064003e06000054
:020000040000fa
:040068003e06000050
:020000040000fa
:04006c003e0600004c
:020000040000fa
:040070003e06000048
:020000040000fa
:040074003e06000044
:020000040000fa
:040078003e06000040
:020000040000fa
:04007c003e0600003c
:020000040000fa
:040080003e06000038
:020000040000fa
:040084003e06000034
:020000040000fa
:040088003e06000030
:020000040000fa
:04008c003e0600002c
:020000040000fa
:040090003e06000028
:020000040000fa
:040094003e06000024
:020000040000fa
:040098003e06000020
:020000040000fa
:04009c003e0600001c
:020000040000fa
:0400a0003e06000018
:020000040000fa
:0400a4003e06000014
:020000040000fa
:0400a8003e06000010
:020000040000fa
:0400ac003e0600000c
:020000040000fa
:0400b0003e06000008
:020000040000fa
:0400b4003e06000004
:020000040000fa
:0400b8003e06000000
:020000040000fa
:0400bc003e060000fc
:020000040000fa
:0400c0003e060000f8
:020000040000fa
:0400c4003e060000f4
:020000040000fa
:0400c8003e060000f0
:020000040000fa
:0400cc003e060000ec
:020000040000fa
:0400d0003e060000e8
:020000040000fa
:0400d4003e060000e4
:020000040000fa
:0400d8003e060000e0
:020000040000fa
:0400dc003e060000dc
:020000040000fa
:0400e0003e060000d8
:020000040000fa
:0400e4003e060000d4
:020000040000fa
:0400e8003e060000d0
:020000040000fa
:0400ec003e060000cc
:020000040000fa
:0400f000ea0300001f
:020000040000fa
:0400f4003e060000c4
:020000040000fa
:0400f8003e060000c0
:020000040000fa
:0400fc003e060000bc
:020000040000fa
:040100003e060000b7
:020000040000fa
:040104003e060000b3
:020000040000fa
:040108003e060000af
:020000040000fa
:04010c003e060000ab
:020000040000fa
:040110003e060000a7
:020000040000fa
:040114003e060000a3
:020000040000fa
:040118003e0600009f
:020000040000fa
:04011c003e0600009b
:020000040000fa
:040120003e06000097
:020000040000fa
:040124003e06000093
:020000040000fa
:040128003e0600008f
:020000040000fa
:04012c009a03000032
:020000040000fa
:040130003e06000087
:020000040000fa
:040134003e06000083
:020000040000fa
:040138003e0600007f
:020000040000fa
:04013c003e0600007b
:020000040000fa
:040140003e06000077
:020000040000fa
:040144003e06000073
:020000040000fa
:040148003e0600006f
:020000040000fa
:04014c003e0600006b
:020000040000fa
:040150003e06000067
:020000040000fa
:040154003e06000063
:020000040000fa
:040158003e0600005f
:020000040000fa
:04015c003e0600005b
:020000040000fa
:040160003e06000057
:020000040000fa
:040164003e06000053
:020000040000fa
:040168003e0600004f
:020000040000fa
:04016c003e0600004b
:020000040000fa
:040170003e06000047
:020000040000fa
:040174003e06000043
:020000040000fa
:040178003e0600003f
:020000040000fa
:04017c003e0600003b
:020000040000fa
:040180003e06000037
:020000040000fa
:040184003e06000033
:020000040000fa
:040188003e0600002f
:020000040000fa
:04018c003e0600002b
:020000040000fa
:040190003e06000027
:020000040000fa
:040194003e06000023
:020000040000fa
:040198003e0600001f
:020000040000fa
:04019c003e0600001b
:020000040000fa
:0401a0003e06000017
:020000040000fa
:0401a4003e06000013
:020000040000fa
:0401a8003e0600000f
:020000040000fa
:0401ac003e0600000b
:020000040000fa
:0401b0003e06000007
:020000040000fa
:0401b4003e06000003
:020000040000fa
:0401b8003e060000ff
:020000040000fa
:0401bc003e060000fb
:020000040000fa
:0401c0003e060000f7
:020000040000fa
:0401c4003e060000f3
:020000040000fa
:0401c8003e060000ef
:020000040000fa
:0401cc003e060000eb
:020000040000fa
:0401d0003e060000e7
:020000040000fa
:0401d4003e060000e3
:020000040000fa
:0401d8003e060000df
:020000040000fa
:0401dc003e060000db
:020000040000fa
:0401e0003e060000d7
:020000040000fa
:0401e4003e060000d3
:020000040000fa
:0401e8003e060000cf
:020000040000fa
:0401ec003e060000cb
:020000040000fa
:0401f0003e060000c7
:020000040000fa
:0401f4003e060000c3
:020000040000fa
:0401f8003e060000bf
:020000040000fa
:0401fc003e060000bb
:020000040000fa
:040200003e060000b6
:020000040000fa
:040204003e060000b2
:020000040000fa
:040208003e060000ae
:020000040000fa
:04020c003e060000aa
:020000040000fa
:040210003e060000a6
:020000040000fa
:040214003e060000a2
:020000040000fa
:040218003e0600009e
:020000040000fa
:04021c003e0600009a
:020000040000fa
:040220003e06000096
:020000040000fa
:040224003e06000092
:020000040000fa
:040228003e0600008e
:020000040000fa
:04022c003e0600008a
:020000040000fa
:040230003e06000086
:020000040000fa
:040234003e06000082
:020000040000fa
:040238003e0600007e
:020000040000fa
:04023c003e0600007a
:020000040000fa
:040240003e06000076
:020000040000fa
:040244003e06000072
:020000040000fa
:040248003e0600006e
:020000040000fa
:04024c003e0600006a
:020000040000fa
:040250003e06000066
:020000040000fa
:040254003e06000062
:020000040000fa
:040258003e0600005e
:020000040000fa
:04025c003e0600005a
:020000040000fa
:040260003e06000056
:020000040000fa
:040264003e06000052
:020000040000fa
:040268003e0600004e
:020000040000fa
:04026c003e0600004a
:020000040000fa
:040270003e06000046
:020000040000fa
:040274003e06000042
:020000040000fa
:040278003e0600003e
:020000040000fa
:04027c003e0600003a
:020000040000fa
:040280003e06000036
:020000040000fa
:100400000f9f21000eff27000e0188000000000052
:10041000000020000000e000020032000001200087
:100420002002880014000700250207000000e000f9
:1004300003003a00e01d2500010020000200370003
:100440000000200001002000810f70000100320038
:100450000f000700000020000000e0000200320052
:1004600000000200000000002c4d0200000000000f
:100470000040da000000fe00e01321000000e00070
:1004800002003200002020009001880000000600d9
:10049000a1028800800478000000eb001f003700f4
:1004a000e284440054a0b4009905ba00e2844400f8
:1004b00054a0b4009906ba00e284440054a0b400e9
:1004c0000006eb00476fde00fd07b200ae018800ba
:1004d000636ce10003003a000ad801000000eb0061
:1004e0000e003700606ce10008003a00004deb00a0
:1004f0000a05e800020039003420ec000af0a000f0
:100500008b05e900f9ff3e00040037006168e10057
:10051000010032000086eb000b00070019c7ba008b
:100520000e04e0001905ba0003003a000a00e000da
:10053000dbff3a0000000600fe07b200ae028800b2
:100540008a047800f5ff37000cd0a300e20f4d00bd
:100550001c00390089027800354dba000a05e80010
:10056000020039003420ec000af0a0008b05e900fd
:100570000f003200254dba000a05e80002003900dc
:100580003420ec000af0a0008b05e90008003200de
:100590000c00e0000600320015cdba000a05e800a4
:1005a000020039003420ec000af0a0008b05e900bd
:1005b0008984e80054a0b4000b00e000e2ff3a0098
:1005c000000006009902ba00055d78008b05e9007d
:1005d000f7ff3200c82ade00055d78008b05e900d0
:1005e000f3ff32000c00e000f1ff320019ddba0029
:1005f000eeff37007c06040000000000809fbe0074
:100600000000fa0091cd80000020200000806000f2
:100610000000e000020032002188a9001f0037001e
:100620000188a9001800370080cd800010407800b4
:100630000080fb002011880080cd80000000e800d1
:1006400080cd880081cd8000c09b2100808f50002c
:1006500002003a00409b210080cd880090cd8000b0
:100660000080a10090cd880081cd800070cd8000f9
:10067000808f500004003a0090cd80000090a000d0
:1006800090cd880005003700111180000020200067
:10069000008060000000e000e3ff32000080fa000c
:1006a0004f00be0000400600809fbe000000fa0020
:1006b0001800370050cd8000311180008140780053
:1006c0000148780050cd80000000e80050cd88003f
:1006d00051cd8000409c2100808f500002003a00e4
:1006e000c09b210050cd880090cd80000010a1005b
:1006f00090cd880051cd800060cd8000808f50006b
:1007000004003a0090cd80000000a00090cd880049
:100710000400370010118000610060000000e0005c
:10072000e4ff3a000168a9000080fa004f00be0013
:1007300000400600801f78000000fa0010118000c1
:10074000620060000000e000010032002222a900e7
:100750000828a9000080fa004f0078000040060039
:100760003600f800c028a9000000eb00b02f0700f9
:100770003600f800b22f0700c048a9001000200082
:10078000ab2f07003600f800c068a9002000200049
:10079000a72f07003600f800c088a900300020000d
:1007a000a32f07003600f800c0a8a90040002000d1
:1007b0009f2f07003600f800c608a900700020002f
:1007c0009b2f07003600f800c488a900a000200075
:1007d000972f07003600f800809fbe00829fbe0062
:1007e000849fbe00869fbe000000fa000648a90054
:1007f000c110800000082000008060000000e000c0
:100800000800320018e2a9003830ef00f0818000c3
:10081000200090008000eb00010878003e30ef00df
:100820000f013700c08180008000eb00b200200083
:1008300003002000820f5000838f5800fe003e000e
:10084000000601000b003700390037007500370043
:100850009c003700f5003700ca003700db00370086
:10086000f2003700dd003700f300370034003700b6
:10087000500037000003210020009000620060005b
:100880000000e000f5003a00000321001000900095
:10089000f081880000032100100090001000780013
:1008a000d08188000003210010009000100090000b
:1008b000e08188000003210010009000e600400065
:1008c0000003210011009800000321009000900017
:1008d000409e2100808f500003003a000003210059
:1008e000e19d21001100980000032100a00090006c
:1008f0000100a10021009800000321009000900059
:100900000003210010007800808f500004003a009e
:1009100000032100a00090000110a0002100980019
:100920001602a80020002000c0818800cc003700fb
:100930001622a80020002000c0818800c8003700cf
:10094000c110800000002800008060000000e0006e
:100950000800320000032100604090008040e80061
:10096000000321006140980040002000942c070003
:10097000bb003700008280008000d100f00f200013
:10098000008060009010880000828000610060009c
:10099000004078000004e00003003200b0002000b6
:1009a000c0818800ae00370030002000c081880080
:1009b000ab003700c11080000000280000806000fc
:1009c0000000e000080032000003210060409000b9
:1009d0008040e800000321006140980040002000b2
:1009e000772c07009e0037001622a80000828000a6
:1009f0004800de00e6006000000f200001007000eb
:100a000000828800008280000000a0000082880030
:100a100010c0b30042f0b70020002000c081880061
:100a20008f00370042d0bf00e14f50000a00320073
:100a3000e08180001000780000828800e081800062
:100a40002000900020828800e0818000100090004b
:100a500030828800010037004270ef000182800080
:100a6000f00f2000808f50000900360000828000c7
:100a70004800de00e6006000000f2000010070006a
:100a800090108800a0002000c0818800740037000a
:100a90000082800090108800008280006100600069
:100aa000004078000004e000030032005000200005
:100ab000c08188006a00370030002000c0818800b3
:100ac00067003700c110800000002800008060002f
:100ad0000000e000090032000003210060409000a7
:100ae0008040e800000321006140980019e2a9005d
:100af00050002000322c070059003700308280005f
:100b00008000780001f0a7008100ea008100e90080
:100b1000cf08de00814078000000e90030828800c4
:100b20000104e00010003200e08180006600400017
:100b3000e0818800d08180000000e900d081880039
:100b4000d08180000000e00003003a002000200077
:100b50001b2c0700420037001622a80020002000ae
:100b6000c08188003e0037002082800090407800dd
:100b70008180fb00911088000000e800208288003e
:100b800037003700c110800000002800008060009e
:100b90000000e000090032000003210060409000e6
:100ba0008040e800000321006140980040002000e0
:100bb000032c070019e2a900290037001662a800db
:100bc00080002000c08188002500370080002000c0
:100bd000c08188001662a8002100370020828000b2
:100be0008110800081407800014878000000e80012
:100bf00020828800308280000000e9003082880076
:100c0000308280000000e0000400320016a2a9003b
:100c100060002000c08188000200370016a2a800f2
:100c2000d62b07001682a8000d00370020002000f8
:100c3000e32b07000a00370000032100604090000a
:100c40008040e8000003210061409800600020001f
:100c5000db2b07000000000001003700000000004f
:100c60000080fa004f03be004f02be004f01be00dd
:100c70004f00be003600f900004006000040da00d8
:100c80000000fe000600fa00000f7800110798002f
:100c900022079800000000001111800000102000c1
:100ca000008060000000e000fbff32001e009000aa
:100cb000ae009000b62a07000080fa00000006008f
:100cc000000005008001780002003700b15978006b
:100cd0000201e9000200e000fcff3a00000006000b
:100ce00080007800010178003104e000fdff3a0047
:100cf0000000510000000600881f78000204780000
:100d000008017800efff0700080040004f0478005a
:100d1000000006000000fa00881f78000004780038
:100d2000ea8157003fb9970088007800c06720002b
:100d3000070007000000e000020035000004440046
:100d4000004ceb004f0478000080fa000000060021
:100d50006200fa00889fbe008a1f780000057800b4
:100d600081047800020478008300780080f92f0065
:100d70000f004000cf0307009a979f00a9979f009c
:100d80000000eb00b09f9f001885fb008a04fb0069
:100d90000a05ea004f55de0050022000808f540003
:100da0000d003200e10f55000b003a000a017800f7
:100db000880078002f9097009f9197000300010012
:100dc000a0979f000000e0008e0032003f9897003f
:100dd0000000e800b09f9f000a0444005002200079
:100de000808f5400040032000900e000e6ff3a0062
:100df0003f989700840037000000eb00909f9f0011
:100e0000809f9f00f0979f00e0979f00d0979f00e2
:100e1000c0979f0007003700819d2100010050000e
:100e200000004000c19c2100808040005f98970036
:100e300011007000d09f9f0088047800090478009a
:100e4000384578008a00fb00809d2100940107004e
:100e50000000e000f0ff3a00a1c2b300814f55004e
:100e60000e003a00cf8897000180e900c08f9f00f4
:100e700010007800c09f9f000000e00005003d00ca
:100e80000000ea00c09f9f005f9897000020a0002c
:100e9000d09f9f000904e8000f003700c09f9f000b
:100ea0000000eb0005003700f2ff2700820f500022
:100eb00002003200ea00b900008040000904780016
:100ec00088047800b900fb000103b100e98f5000ed
:100ed000f5ff3600c09f9f00e0c2b300984f10009e
:100ee000020032000080eb0019003700a0c2b300fe
:100ef000d84f100007003a00cf8897000180e90022
:100f0000c08f9f0010007800a09f9f000804e80099
:100f1000100037000000eb00a09f9f0088007800c1
:100f200005003700f3ff2700830f50000200320056
:100f3000ea00b90000004100010478008800780050
:100f40003101fb000203b100e90f5100f5ff36004b
:100f5000a09f9f00984478008900fb00409c2100de
:100f60004f0107000000e000020032000804e80022
:100f7000010037008044eb00c97f9f0080c6b300aa
:100f800080cf540004003a0098cf14000a003a00c1
:100f90006640500006003700c0c6b30080cf540042
:100fa00005003a0098cf140003003a006540400065
:100fb000c07f9f000804e8001801fb00e3fb2f003e
:100fc0008f81410081f92f008f804000a0f92f0010
:100fd0000f004000100007000000e00009003a0088
:100fe000e1fb2f008f804000a0f92f000f00400090
:100ff000740207000000e000020035000804e80069
:1010000061ff37000080eb004f0578004f04be0001
:101010000080fa0000000600889fbe008a9fbe0084
:10102000e4c6b300844f5100ce00320010003c00f3
:101030006b425200844f51001800320005003c0002
:1010400054c2b300844f51000601320084c5b3007e
:101050000f00370044c6b300844f51001500320022
:1010600065424200844f510001013a0011003700ef
:1010700004c7b300844f5100ed0032005f0035001b
:1010800065424200844f51005c00320063424200de
:10109000844f5100f6003a00580037001181e900f2
:1010a00082087800f0009000818141009249780028
:1010b000f500370020629000c5c6b300854f52008e
:1010c00008003a0091027800648252008408780097
:1010d00094029000140278004fabde008603780083
:1010e0001600370015c7b300854f520003003a00c1
:1010f000110478006802540005003700a5c6b3004b
:10110000854f520008003a0091047800688254002c
:10111000840878009402900024039000b4039000a7
:1011200014027800050037001182e9008408780075
:1011300014027800cfa2de00612bb9000498be0033
:101140000690be00a060900088c6b30088cf500013
:101150000d00320028c6b30088cf500004003a00ca
:101160000402fb00cfa2de00612bb90008003700ab
:1011700048c7b30088cf50000300320066444400e3
:1011800088cf500004003a00cfa2de00612bb900e6
:101190000498be000690be001002780090029000f5
:1011a00020039000b0039000f0009000e00f520088
:1011b000e08f5a00e00f5b00e08f5b0003003d0012
:1011c00001824100d5c2b3000a003700001290002e
:1011d0000418a3000300320001824100b5c2b3002d
:1011e000040037000408a3005900320001824100c6
:1011f00005c2b300054a7800530037002062900012
:10120000c5c6b300854f520009003a0011057800a9
:101210006402550084087800140478009404900057
:101220006055b8000802be000a03be001600370071
:1012300015c7b300854f520003003a0091047800af
:101240006882540005003700a5c6b300854f5200e0
:1012500008003a00110578006802550084087800fb
:101260009402900024039000b403900014027800cc
:10127000050037001182e900840878001402780024
:101280008002eb006033b8000498be000690be00f8
:10129000a060900088c6b30088cf50000d003200d7
:1012a00028c6b30088cf500004003a000482fb0037
:1012b0008002eb006033b8000800370048c7b30075
:1012c00088cf5000030032006644440088cf5000ad
:1012d00004003a008002eb006033b8000498be00be
:1012e0000690be00801090000138a3001800320064
:1012f000100278009002900020039000b00390004c
:10130000e00f5200e08f5a00e00f5b00e08f5b00bf
:101310000f00320081c7b300814f5100030032003b
:1013200081c5b300814f510009003a00f0009000e0
:101330000182410005c3b300054a78008100e8003e
:1013400001824100024a78008100e80071009800a3
:10135000f000900081814100630098008240780095
:101360003e003700a0619000c4c6b3001181e900bf
:1013700084cf5100220032000a003c006442520037
:1013800084cf51002500320004c2e80084cf510010
:10139000130032006842520084cf51001e003a0010
:1013a0000a00370044c7b30084cf51001b0032004d
:1013b0006642420084cf5100180032006942520058
:1013c00084cf510014003a000500370082087800ed
:1013d0009200780040589000804878002c00370038
:1013e0008208780092007800600a9000cfa2de00a8
:1013f000612bb9008498be008690be00240037009f
:10140000820878009200780060099000cf91de0099
:101410008288be001e0037001181e9008208780032
:10142000920078006008900080087800180037006b
:101430001181e9008208780012027800cfa2de0054
:10144000612bb9000498be000690be00f000900029
:10145000818141006300980081c7b3001c00070030
:101460000b003700f000900081814100050037003b
:10147000f0009000818141000204e00001003a0088
:1014800052c2b300824978008100e80071009800e0
:101490000000eb004f05be004f04be000000060038
:1014a000020037000304e00006003200000178006b
:1014b00002007800b041780081cf5100f9ff3a0076
:1014c000010037000001eb00020078000000060078
:1014d000fc874700889fbe008a9fbe008c9fbe008d
:1014e0008e1f78000006780080c5b30080cf5000c2
:1014f0000a0032007740400080cf50000a003200de
:101500006940400080cf50000b00320090972100ce
:1015100080bf9f00ae0020000a00370082962100a5
:1015200082bf9f00060037009397210083bf9f0072
:101530008e002000030037009497210084bf9f0095
:101540000e0120001c0278009c0290002c039000e9
:10155000bc0390000605be000404be0040c6b300f4
:1015600080cf5000030032006540400080cf500023
:101570000b003a00e00f5200e08f5a00e00f5b00d2
:10158000e08f5b0006003d006000b8006011b8000d
:1015900004045000858458000605590087855900c9
:1015a000e80f57000400320040002000f00f570001
:1015b0003c003a000100370030002000e00f5400ea
:1015c000e08f5c00e00f5d00e08f5d0004003a00fa
:1015d000dc0890008d0120000100e00007003200cf
:1015e0008e00e900888060008fba970081804200f9
:1015f00091407800f1ef9f007d012000800078008d
:101600008100e900050033008b05d1000a85d30075
:101610008984d3000884d300f9ff3700089ebe00f8
:101620000a96be00130037008d06e9008e00e9001f
:10163000848060000fb9970081004100114178005b
:1016400083fd2f008d81410082f7790080017800b1
:101650008301e900050033008783d1000683d300ae
:101660008582d3000482d300f9ff3700049ebe00b8
:101670000696be001c0278009c0290002c0390008d
:10168000bc039000e00f5200e08f5a00e00f5b00b7
:10169000e08f5b00930034000d00e000e2ff3c00af
:1016a000900037002c60900081c6b300814f50003d
:1016b0000b00320006003c000004e000080032008d
:1016c000e6c05000814f500052003a00040037003d
:1016d000c1c6b300814f50004e003a0023003700ce
:1016e0000800e00004003a005c0890008d01200032
:1016f0000000e00007003200110009000e84d8004d
:101700000fba97000100420010407800f0ef9f00f0
:101710007d012000110009000e84d8000b00370065
:10172000110009000e04d8008d06e9008e81b90071
:10173000020454008fb89700088440009841780054
:1017400082fd2f000d0141008377790000047800ad
:101750000800e000020032000d00e000f0ff3c0055
:10176000cfc4de00614db90027003700e00f540000
:10177000e08f5c0004003a005c0890008d012000be
:101780000000e000080032006171b9000800be00ee
:10179000690107000fba970080004200914078006d
:1017a000f1ef9f007d0120006171b9000800be00cb
:1017b000510107000c0037006171b9000800be003c
:1017c0003e0107008d06e90080f1b90002045400d3
:1017d0008fba9700088442009841780082fd2f005c
:1017e0000d014100837779000004be00e00f500036
:1017f000e08f5800020032000d00e000eeff3c00d8
:101800004fcdde008a057800089ebe000a96be0015
:1018100034003700e00f5400e08f5c00e00f5d0003
:10182000e08f5d0004003a005c0890008d0120000c
:101830000000e0000a0032006172b900612bb900bb
:101840000800be000a01be00e00107000fba9700c1
:101850008000420091407800f1ef9f007d01200060
:101860006172b900612bb9000800be000a01be0018
:10187000cf0107000e0037006172b900612bb9007b
:101880000800be000a01be00d40107008d06e90071
:1018900080f2b900040454008fba97000884420013
:1018a0009842780084fd2f000d02420085777a006f
:1018b000009ebe000296be001c0478009c049000ae
:1018c0002c059000bc059000e00f5400e08f5c00f8
:1018d000e00f5d00e08f5d00020034000d00e000cd
:1018e000e5ff3c00e80f570010003a000c10900094
:1018f0000038a3000d003200f78f560006003e00ae
:1019000080fd2f000d004000ef40780000c3b300c1
:1019100080cf50000500320002c3b30071fd2f00dc
:101920008d8040008d06e90082f7780078811600ee
:10193000120e98006c00900083fd2f008f814100f3
:101940008d804100dffc07001c089000dc0890003f
:10195000810f500006003d0000805000000e9800ee
:101960000c1090000040a100001698000f003700f6
:101970000100e0000d003d008c109000f48060003c
:10198000f08f500009003a007c099000fc009000a4
:10199000810051000c0990008280500000805000ae
:1019a0004240a90001003400000e98004f07780063
:1019b0004f06be004f05be004f04be00cf01b10070
:1019c000000006000400fa00889fbe008a9fbe0047
:1019d0008c1f78000004780001067800f80d900054
:1019e000780090008085550008089000808555009b
:1019f00018089000808555002808900080855500c3
:101a00003808900080855500480890008085550072
:101a10000002220090bf9f0000032300a0bf9f0090
:101a2000081090000028a30015003a000b00e00009
:101a3000130034000b0578008a047800e20f55008b
:101a40000100360029002000c8019000090178003b
:101a5000ee805700580090000300010050049800e9
:101a60000000e0008c00320068089000090040008f
:101a7000600c9800090555004240a900eeff3c00ab
:101a8000780190000200e0000c003400c8019000d2
:101a90008c0078005800900003000100500498006a
:101aa0008080eb000000e0007c003200e80890003d
:101ab0007800900000804000600c9800880c900036
:101ac0000900e0001100340009057800e28f54009d
:101ad000010036002a002000c80190000a017800a9
:101ae000ec8057005800900003000100500498005b
:101af0000000e00068003200680890000a00400022
:101b0000600c98008a845400edff3700180990009b
:101b10000200e0000c003400c8019000e8009000d2
:101b20005800900003000100500498008080eb00f2
:101b30000000e00059003200e8089000180890000a
:101b400000804000600c9800a80c90000900e000a4
:101b50001100340009057800e28f540001003600be
:101b60002a002000c80190000a017800ec8057008c
:101b70005800900003000100500498000000e000ad
:101b800045003200680890000a004000600c980090
:101b90008a845400edff3700380990000200e0000d
:101ba0000e003400e800900018089000808040008b
:101bb000c8019000580090000300010050049800f4
:101bc0008080eb000000e00034003200e808900064
:101bd0003808900000804000600c9800c80c90000d
:101be0000900e0001100340009057800e28f54007c
:101bf000010036002a002000c80190000a01780088
:101c0000ec80570058009000030001005004980039
:101c10000000e00020003200680890000a00400048
:101c2000600c98008a845400edff37000810900083
:101c30008000eb000028a300180032000b00e00039
:101c4000160034008b04780009057800e28f5400f8
:101c5000010036002a002000c80190000a01780027
:101c6000ee805700580090000300010050049800d7
:101c70000000e00008003200680890000a00400000
:101c8000600c98008a8454004240a900eeff3c009a
:101c90008000eb00010037008080eb00010078003d
:101ca0004f0678004f05be004f04be000080fa00ca
:101cb000000006000108780000000600839f68000d
:101cc0000100e00002003d0060001000e08018000c
:101cd0000300e00002003d0060011100e0811900f6
:101ce000050007004f00e00002003b00600010000c
:101cf000e0801800000006006022b8000602200004
:101d00000000d0008180d2000482d2008582d200ff
:101d10000000a0000202520083825a00030031003a
:101d20000202420083824a000000a1000603e9008b
:101d3000f3ff3a0000000600efff07000400be00ba
:101d400000000600889fbe008a9fbe00300442004b
:101d5000b0844a0030054b0090854b006000b10014
:101d60000898be000a90be000440e10005c8e100ea
:101d700006d0e10007d8e100020031006800400011
:101d80001008e8004f05be004f04be00000006002a
:101d9000889fbe008a9fbe001004780090049000c7
:101da00020059000b00590000418540005985c00d0
:101db00006185d0007985d00110020000440e10056
:101dc00005c8e10006d0e10007d8e10001003900b4
:101dd0008000eb00108810004f05be004f04be00cd
:101de000000006001200fa00889fbe008a9fbe0015
:101df0008c9fbe00e0b79f00f1b79f0082bf9f009d
:101e000093bf9f000605be000404be000000eb0067
:101e1000d0b79f00c0b79f00b0b79f00a0b79f008a
:101e200090b79f00000678005fb19700cfb0970091
:101e3000820141003fb097000200e00004003d0035
:101e4000370007007e805700beff07000300370001
:101e5000330007007e805700cdff0700dfb69700f4
:101e60000d00e0000c0035006fb29700ffb2970044
:101e70000fbb97009fbb97001000200001002000bf
:101e80006011b800000272008182720002037300c8
:101e9000838373001b0007000c06e8000104200088
:101ea000810f5600e0ff3a000d00e00004003d0005
:101eb0000802be000a03be007e805700a1ff070093
:101ec0005fa897000000e00005003a001fb29700ed
:101ed000afb297003fb39700cfb397000900070058
:101ee0006fb09700ffb097000fb997009fb99700a8
:101ef0004f06be004f05be004f04be000080fa0032
:101f0000000006000100070000000600a4b79f00c3
:101f1000b5b79f00c6b79f00d7b79f000000060067
:101f20004f09de0082817100b3b79f004f01de00d0
:101f30008180400082807000a1b79f008fb0970021
:101f40004f09de00000040000200700090b79f00c3
:101f50007fa897004f01de008180400082807000e2
:101f600081b79f000d0007004f3ade0000004000df
:101f700004007000f0af9f00080007000402420058
:101f800085824a0006034b0087834b00dfff070072
:101f90000802be000a03be00000006002fb2970030
:101fa000bfb297004fb39700dfb397000000060061
:101fb000881f780018002000881f780089ff07001c
:101fc0008f87e9004f04780000000600801feb00b7
:101fd00084ff07008f87e90000000600889fbe008d
:101fe0008a9fbe00e00f5000e08f5800e00f5900bc
:101ff000e08f59000c003d006044b8006055b80007
:102000000000540081805c0002015d0083815d005e
:10201000180020001500070008003d001800070008
:102020000004eb00050037000004eb000f00070080
:1020300002003d001200070018002000dcff07002e
:102040000800e000060032006022b8006033b800eb
:102050000000520081805a0002015b0083815b0016
:102060004f05be004f04be0000000600e00f520006
:10207000e08f5a00e00f5b00e08f5b00000006007d
:102080006044b8006055b8000402540085825c00ca
:1020900006035d0087835d0000000600889fbe0088
:1020a0008a9fbe008c1f7800e00f5000e08f580020
:1020b000e00f5900e08f59000d003d006044b8006a
:1020c0006055b8000000540081805c0002015d0092
:1020d00083815d001c0020000820e10009a8e100c8
:1020e0000ab0e1000bb8e1000d003d000800370028
:1020f0000006eb00e00f5200e08f5a00e00f5b009b
:10210000e08f5b0006003d006044b8006055b800f9
:102110000402540085825c0006035d0087835d0035
:10212000aaff07000c00e000060032006022b800a1
:102130006033b8000000520081805a0002015b0049
:1021400083815b004f0678004f05be004f04be0040
:042150000000060085
:020000040000fa
:10215400546500006d700000204100006c650000b3
:1021640072740000205300006574000020740000a5
:102174006f3a000020250000642000004320000086
:1021840020200000202000000d0a0000004c000068
:102194004544000020430000757200007265000091
:1021a4006e74000020440000414300002041000000
:1021b400204900006e69000074690000616c000031
:1021c400697a0000656400000d0a0000004c0000fc
:1021d4004544000020430000757200007265000051
:1021e4006e740000204400004143000020420000bf
:1021f400204900006e69000074690000616c0000f1
:10220400697a0000656400000d0a000000490000be
:10221400534f000020530000696400006520000053
:1022240047500000494f000020450000787400002a
:10223400656e00006465000072200000496e0000b5
:1022440069740000696100006c6900007a6500002f
:10225400640d00000a000000576100006c6c00006f
:10226400205300006964000065200000475000000e
:10227400494f00002045000078740000656e00009e
:102284006465000072200000496e0000697400005b
:10229400696100006c6900007a650000640d00004b
:1022a4000a000000436f00006e740000726f0000ab
:1022b4006c200000506100006420000041200000f8
:1022c40047500000494f000020450000787400008a
:1022d400656e00006465000072200000496e000015
:1022e40069740000696100006c6900007a6500008f
:1022f400640d00000a000000436f00006e740000cb
:10230400726f00006c200000506100006420000027
:102314004220000047500000494f000020450000c3
:1023240078740000656e000064650000722000008f
:10233400496e000069740000696100006c69000066
:102344007a650000640d00000a0000004368000084
:10235400616e00006e6500006c20000041200000ea
:1023640043610000626c000065200000506c0000b6
:10237400756700006765000064200000496e000076
:102384000d0a000000430000686100006e6e00004a
:10239400656c0000204200002043000061620000e0
:1023a4006c650000205000006c7500006767000039
:1023b40065640000204900006e0d00000a00000062
:1023c40043680000616e00006e6500006c20000030
:1023d4004120000053650000724400006573000052
:1023e400204c00006f6300006b650000640d00006a
:1023f4000a0000002a2a000020430000686100004f
:102404006e6e0000656c0000204100002053000047
:102414006572000044650000732000004e6f0000e8
:10242400742000004c6f0000636b000065640000c2
:1024340021210000202a00002a0d00000a000000cb
:1024440043680000616e00006e6500006c200000af
:1024540042200000536500007244000065730000d0
:10246400204c00006f6300006b650000640d0000e9
:102474000a0000002a2a00002043000068610000ce
:102484006e6e0000656c00002042000020530000c6
:102494006572000044650000732000004e6f000068
:1024a400742000004c6f0000636b00006564000042
:1024b40021210000202a00002a0d00000a0000004b
:1024c4000d0a000043680000616e00006e650000a4
:1024d4006c20000025640000204100005031000001
:1024e4003330000032200000426f00006f7400009f
:1024f4002041000074740000656d000070740000d9
:10250400202500006420000063680000656300006b
:102514006b730000756d000020730000746100008f
:10252400747500007320000025640000202a000058
:102534002a0d00000a00000043680000616e0000dc
:102544006e6500006c200000412000004361000023
:10255400626c0000652000004e6f000074200000d3
:10256400436f00006e6e0000656300007465000038
:10257400640d00000a00000043680000616e000062
:102584006e6500006c2000004220000043610000e2
:10259400626c0000652000004e6f00007420000093
:1025a400436f00006e6e00006563000074650000f8
:1025b400640d00000a00000043680000616e000022
:1025c4006e6500006c20000041200000446500009e
:1025d4007365000072690000616c0000697a000094
:1025e40065720000204300006f6e00006669000001
:1025f4006775000072650000640d00000a000000a9
:1026040043680000616e00006e6500006c200000ed
:1026140042200000446500007365000072690000f8
:10262400616c0000697a00006572000020430000bc
:102634006f6e000066690000677500007265000037
:10264400640d00000a00000043680000616e000091
:102654006e6500006c20000041200000446500000d
:102664007365000072690000616c0000697a000003
:1026740065720000205300006574000020660000ad
:102684006f72000020540000657300007420000085
:102694005061000074740000657200006e2c00002c
:1026a40020250000642000004d490000504900002e
:1026b400204c0000616e0000657300000d0a0000ec
:1026c40000430000686100006e6e0000656c00004d
:1026d4002042000020440000657300006572000081
:1026e400696100006c6900007a65000072200000d6
:1026f4005365000074200000666f00007220000023
:1027040054650000737400002050000061740000e0
:1027140074650000726e00002c2000002564000027
:10272400204d000049500000492000004c61000089
:102734006e650000730d00000a000000436800008d
:10274400616e00006e6500006c20000041200000f6
:102754005365000072690000616c0000697a000032
:1027640065720000204300006f6e0000666900007f
:102774006775000072650000640d00000a00000027
:102784002a2a000020430000686100006e6e0000e9
:10279400656c0000204100002053000065720000b9
:1027a400696100006c6900007a6500007220000015
:1027b40046410000494c000045440000202100002f
:1027c400212000002a2a00000d0a00000043000016
:1027d400686100006e6e0000656c0000204200001d
:1027e4002053000065720000696100006c690000fc
:1027f4007a65000072200000436f00006e660000de
:102804006967000075720000656400000d0a00002d
:10281400002a00002a20000043680000616e0000c6
:102824006e6500006c20000042200000536500002b
:1028340072690000616c0000697a00006572000032
:1028440020460000414900004c450000442000009f
:1028540021210000202a00002a0d00000a000000a7
:1028640043680000616e00006e6500006c2000008b
:10287400412000005365000072690000616c000093
:10288400697a00006572000020540000657300003e
:102894007420000050610000747400006572000030
:1028a4006e200000456e0000616200006c6500004f
:1028b4006420000025640000204d00004950000001
:1028c400492000004c6100006e650000730d00009b
:1028d4000a00000043680000616e00006e6500009d
:1028e4006c20000042200000536500007269000063
:1028f400616c0000697a00006572000020540000d9
:1029040065730000742000005061000074740000be
:10291400657200006e200000456e000061620000d8
:102924006c6500006420000025640000204d000058
:1029340049500000492000004c6100006e65000011
:10294400730d00000a00000043680000616e00007f
:102954006e6500006c200000412000004150000022
:102964003133000030320000205300007563000052
:102974006365000073730000667500006c6c0000f2
:102984007920000044650000746500006374000051
:10299400656400002c2000004c6f0000616400009e
:1029a400696e00006720000050610000746300003d
:1029b400682e00002e2e00000d0a0000002a0000e0
:1029c4002a20000043680000616e00006e6500006c
:1029d4006c20000041200000415000003133000011
:1029e400303200002044000065740000656300007c
:1029f400746900006f6e0000204600004149000029
:102a04004c45000044210000212000002a2a000037
:102a14000d0a000000430000686100006e6e0000b3
:102a2400656c00002042000020410000503100008d
:102a3400333000003220000053750000636300004f
:102a44006573000073660000756c00006c7900000b
:102a54002044000065740000656300007465000094
:102a6400642c0000204c00006f61000064690000c9
:102a74006e6700002050000061740000636800006d
:102a84002e2e00002e0d00000a0000002a2a00004d
:102a940020430000686100006e6e0000656c000059
:102aa400204200002041000050310000333000007b
:102ab4003220000044650000746500006374000067
:102ac400696f00006e20000046410000494c000080
:102ad4004544000021210000202a00002a0d0000a6
:102ae4000a00000043680000616e00006e6500008b
:102af4006c200000412000004c45000044200000f0
:102b04004c650000766500006c20000073650000d1
:102b140074200000746f000020250000640d000084
:102b24000a00000043680000616e00006e6500004a
:102b34006c200000422000004c45000044200000ae
:102b44004c650000766500006c2000007365000091
:102b540074200000746f000020250000640d000044
:102b64000a00000044560000492000004f75000090
:102b74007470000075740000204300006820000099
:102b840041200000496e0000697400006961000082
:102b94006c6900007a650000642000000d0a0000e2
:102ba4000044000056490000204f000075740000e6
:102bb400707500007420000043680000204200008b
:102bc400204900006e69000074690000616c000017
:102bd400697a000065640000200d00000a0000000e
:102be40044560000492000004f7500007470000036
:102bf400757400002043000068200000414200007a
:102c0400204900006e69000074690000616c0000d6
:102c1400697a0000656400000d0a0000000d0000e0
:102c24000a0d00000a0d00000a0d00000a0d000044
:102c34000a0d00000a0d00000a0d00000a0d000034
:102c44000a0000002a2a00002a2a00002a2a00007a
:102c54002a2a00002a2a00002a2a00002a2a000020
:102c64002a2a00002a2a00002a2a00002a2a000010
:102c74002a2a00002a2a00002a2a00002a2a000000
:102c84000d0a000000570000656c0000636f00002f
:102c94006d650000207400006f2000004e65000088
:102ca400772000005669000065770000205300007b
:102cb4007572000067690000636100006c20000009
:102cc400200d00000a0000000d0a0000004300006f
:102cd4005055000020560000657200007369000022
:102ce4006f6e00003a2000002530000032580000ca
:102cf4002e25000030320000582000002020000063
:102d0400202000002020000020200000200d0000d2
:102d14000a00000046500000474100002056000011
:102d240065720000736900006f6e00003a200000b5
:102d340025300000325800002e25000030320000fb
:102d4400582000003a2000004c3a0000256400009e
:102d54006d7300000d0a000000490000535000008c
:102d64002056000065720000736900006f6e000059
:102d74003a20000025300000325800002e250000c3
:102d840030320000582000002020000020200000e5
:102d94002020000020200000200d00000a00000078
:102da4003e3e00002055000041520000543a00000d
:102db400205400006f670000676c0000652000006d
:102dc400536500006c650000637400002066000019
:102dd4006f7200002056000069640000656f0000f7
:102de400204d000055580000200d00000a0000008e
:102df4003e3e00002055000041520000543a0000bd
:102e040020540000757200006e2000004f6e000018
:102e1400204d000049500000492000005465000086
:102e24007374000020500000617400007465000099
:102e3400726e0000200d00000a0000003e3e0000fb
:102e44002055000041520000543a00002054000074
:102e5400757200006e2000006f660000662000009e
:102e64004d490000504900002054000065730000e3
:102e7400742000005061000074740000657200004a
:102e84006e2000000d0a0000003e00003e200000fd
:102e940055410000525400003a20000054750000cf
:102ea400726e0000204f00006e2000005365000089
:102eb40072690000616c0000697a000065720000ac
:102ec400205400006573000074200000506100006d
:102ed40074740000657200006e2000000d0a00008a
:102ee400003e00003e200000554100005254000006
:102ef4003a20000054750000726e0000206f00003c
:102f040066660000205300006572000069610000dd
:102f14006c6900007a6500007220000054650000ae
:102f24007374000020500000617400007465000098
:102f3400726e0000200d00000a0000003e3e0000fa
:102f44002055000041520000543a00002054000073
:102f5400757200006e2000004f6e000020410000da
:102f6400503100003330000032200000546500006e
:102f74007374000020500000617400007465000048
:102f8400726e0000200d00000a0000003e3e0000aa
:102f94002055000041520000543a00002054000023
:102fa400757200006e2000006f660000662000004d
:102fb4004150000031330000303200002054000042
:102fc40065730000742000005061000074740000f8
:102fd400657200006e2000000d0a0000003e000033
:102fe4003e20000055410000525400003a200000e9
:102ff40054750000726e0000204f00006e20000027
:10300400484400004d49000020540000657300004e
:1030140074200000506100007474000065720000a8
:103024006e2000000d0a0000003e00003e2000005b
:1030340055410000525400003a200000547500002d
:10304400726e0000206f00006666000020480000d9
:10305400444d0000492000005465000073740000d2
:10306400205000006174000074650000726e00005e
:10307400200d00000a0000003e3e00002055000024
:1030840041520000543a00002052000065620000e2
:103094006f6f00007420000046500000474100009c
:1030a400200d00000a0000003e3e000020550000f4
:1030b40041520000543a00002052000065700000a4
:1030c4006f720000742000005665000072730000e7
:1030d400696f00006e2000004e7500006d620000f4
:1030e40065720000732000000d0a0000003e00001d
:1030f4003e20000055410000525400003a200000d8
:1031040046500000474100002049000032430000bf
:10311400205700007269000074650000204100001f
:103124006464000072200000307800002530000044
:103134003258000020440000617400006120000047
:10314400307800002530000032580000253000009f
:1031540032580000200d00000a0000003e3e00002e
:103164002055000041520000543a0000204600005f
:103174005047000041200000493200004320000075
:103184005265000061640000204100006464000096
:103194007220000030780000253000003258000012
:1031a4002072000065740000757200006e650000f6
:1031b40064200000446100007461000020300000bd
:1031c4007825000030340000582000000d0a00006b
:1031d400000d00000a2a00002a2a00002a2a000002
:1031e4002a2a00002a2a00002a2a00002a2a00008b
:1031f4002a2a00002a2a00002a2a00002a2a00007b
:103204002a2a00002a2a00002a0d00000a0d0000c4
:103214000a3e00003e2000005541000052540000c8
:10322400204300006f6d00006d6100006e640000bb
:10323400204900006e6600006f7200006d6100009e
:10324400746900006f6e0000200d00000a00000089
:103254003e3e0000204d000049500000492000007f
:103264005465000073740000205000006174000075
:1032740074650000726e0000204f00006e3a00007a
:10328400204d0000203c0000656e000074650000c5
:10329400723e0000200d00000a0000003e3e0000c7
:1032a400204d0000495000004920000054650000f2
:1032b4007374000020500000617400007465000005
:1032c400726e0000204f0000666600003a20000085
:1032d4006d2000003c6500006e7400006572000003
:1032e4003e2000000d0a0000003e00003e200000c9
:1032f400546f0000676700006c6500002044000004
:10330400564900002041000042200000536500009f
:103314006c650000637400003a2000005320000034
:103324003c6500006e740000657200003e200000e1
:103334000d0a0000003e00003e200000484400004a
:103344004d49000020540000657300007420000003
:103354005061000074740000657200006e2000006b
:103364004f6e00003a200000542000003c6500002d
:103374006e740000657200003e2000000d0a00001b
:10338400003e00003e200000484400004d4900007b
:103394002054000065730000742000005061000098
:1033a40074740000657200006e2000004f66000017
:1033b400663a000020740000203c0000656e0000a6
:1033c40074650000723e0000200d00000a00000039
:1033d4003e3e000020520000656200006f6f000056
:1033e4007420000046500000474100003a200000cd
:1033f400722000003c6500006e74000065720000dd
:103404003e2000000d0a0000003e00003e200000a7
:1034140046500000474100002049000032430000ac
:103424002052000065610000643a0000206600003c
:103434002072000072720000203c0000656e0000e3
:1034440074650000723e00002028000072720000c3
:10345400723d0000646500006320000061640000a8
:1034640064720000292000000d0a0000003e0000e4
:103474003e20000046500000474100002049000063
:103484003243000020570000726900007465000098
:103494003a200000462000007272000072200000f2
:1034a4006464000064640000642000003c65000063
:1034b4006e740000657200003e2000000d0a0000da
:1034c400003e00003e200000415000003133000067
:1034d4003032000020540000502000004f6e0000e5
:1034e4003a2000004f2000003c6500006e7400008c
:1034f400657200003e2000000d0a0000003e00003e
:103504003e20000041500000313300003032000002
:1035140020540000502000004f460000463a0000ae
:10352400206f0000203c0000656e00007465000000
:10353400723e0000200d00000a0000003e3e000024
:103544002053000065720000696100006c6900008e
:103554007a6500007220000054500000204f0000e3
:103564006e3a000020500000203c0000656e000010
:1035740074650000723e0000200d00000a00000087
:103584003e3e0000205300006572000069610000a7
:103594006c6900007a65000072200000545000003d
:1035a400204f0000464600003a2000007020000032
:1035b4003c6500006e740000657200003e2000004f
:1035c4000d0a0000003e00003e200000526500008d
:1035d400706f0000727400002056000065720000d5
:1035e400736900006f6e0000204e0000756d0000ce
:1035f40062650000727300003a200000762000002b
:103604003c6500006e740000657200003e200000fe
:103614000d0a0000003e00003e200000526500003c
:103624006164000020430000684100002041000064
:103634005031000033300000322000004c6f000095
:10364400673a0000204c0000203c0000656e00003a
:1036540074650000723e0000200d00000a000000a6
:103664000d0a00002a2a00002a2a00002a2a000043
:103674002a2a00002a2a00002a2a00002a2a0000f6
:103684002a2a00002a2a00002a2a00002a2a0000e6
:103694002a2a00002a2a00000d0a00000d0a000050
:1036a400003e00003e20000055410000525400003e
:1036b4003a200000465000004741000020770000f7
:1036c4007269000074650000206600006f720000db
:1036d4006d6100007420000069730000203c00004c
:1036e4006620000072720000722000006464000012
:1036f40064640000643e0000206100006c6c000003
:10370400206900006e200000646500006369000009
:103714006d6100006c2000000d0a0000003e0000f6
:103724003e20000055410000525400003a200000a1
:10373400465000004741000020720000656100000f
:1037440064200000666f0000726d00006174000068
:1037540020690000732000003c6600002072000015
:10376400727200003e200000616c00006c200000ba
:10377400696e00002064000065630000696d00004c
:10378400616c0000200d00000a0000003e3e0000b5
:103794002055000041520000543a0000204e000021
:1037a4006f6e00002d5200006574000075720000f9
:1037b4006e20000043680000617200002044000095
:1037c400657400006563000074650000642c0000eb
:1037d400205100007565000075650000642000003c
:1037e400696e0000204300006f6d00006d610000f1
:1037f4006e640000206200007566000066650000cb
:10380400722000000d0a00000043000068610000ff
:103814006e6e0000656c000020250000642000002e
:1038240042750000747400006f6e0000287300007d
:1038340029200000726500006c65000061730000bf
:10384400656400002020000020200000200d0000fe
:103854000a00000043680000616e00006e6500000d
:103864006c20000025640000204900006e760000f2
:10387400616c00006964000020420000757400005f
:10388400746f00006e200000436f00006d62000042
:10389400696e000061740000696f00006e20000012
:1038a40020200000202000000d0a0000004300003a
:1038b400686100006e6e0000656c00002025000049
:1038c400642000005365000063720000657400000a
:1038d4002042000075740000746f00006e20000028
:1038e40050720000657300007365000064200000de
:1038f40020200000202000000d0a000000430000ea
:10390400686100006e6e0000656c000020250000f8
:103914006420000042750000747400006f6e0000a3
:1039240020310000205a00006f6f00006d2000005d
:103934004f750000742000007365000074200000bf
:10394400746f00002025000030340000580d000082
:103954000a00000043680000616e00006e6500000c
:103964006c200000256400002042000075740000f3
:10397400746f00006e200000312000005a6f0000b8
:103984006f6d0000204900006e2000007365000088
:1039940074200000746f0000202500003034000003
:1039a400580d00000a00000043680000616e00002a
:1039b4006e6500006c2000002564000020420000b9
:1039c40075740000746f00006e2000003120000048
:1039d400506100006e20000055700000207300004c
:1039e40065740000207400006f2000002530000082
:1039f400345800000d0a0000004300006861000014
:103a04006e6e0000656c000020250000642000003c
:103a140042750000747400006f6e000020310000d5
:103a240020500000616e0000204c0000656600001c
:103a3400742000007365000074200000746f00009f
:103a44002025000030340000580d00000a0000005a
:103a540043680000616e00006e6500006c20000089
:103a6400256400002042000075740000746f00009b
:103a74006e20000031200000506100006e20000024
:103a8400526900006768000074200000736500003c
:103a940074200000746f0000202500003034000002
:103aa400580d00000a00000043680000616e000029
:103ab4006e6500006c2000002564000020420000b8
:103ac40075740000746f00006e2000003120000047
:103ad400506100006e200000446f0000776e00000b
:103ae4002073000065740000207400006f20000043
:103af40025300000345800000d0a00000043000087
:103b0400686100006e6e0000656c000020250000f6
:103b14006420000042750000747400006f6e0000a1
:103b24002037000020520000656400007563000027
:103b3400652000004c450000442000005072000045
:103b44006573000073650000642e000020530000bc
:103b540065740000207400006f20000025640000dc
:103b64002e0d00000a00000043680000616e000092
:103b74006e6500006c2000002564000020420000f7
:103b840075740000746f00006e200000382000007f
:103b9400546f0000676700006c650000204c000053
:103ba40045440000204f00006e2f00004f660000c7
:103bb4006620000050720000657300007365000009
:103bc400642e0000204500006e610000626c00005d
:103bd40065200000697300002025000064200000b7
:103be400616e0000642000006c65000076650000d2
:103bf4006c2000006973000020250000642e000082
:103c04000d0a000000430000686100006e6e0000b1
:103c1400656c00002025000064200000427500004f
:103c2400747400006f6e0000203900002049000009
:103c34006e6300007265000061730000652000007f
:103c44004c450000442000005072000065730000e1
:103c540073650000642e00002053000065740000aa
:103c6400207400006f200000256400002e0d000069
:103c74000a00000043680000616e00006e650000e9
:103c84006c200000256400002042000075740000d0
:103c9400746f00006e2000003130000020540000da
:103ca4006f670000676c000065200000536300002c
:103cb40072650000656e000020500000726500000f
:103cc40073730000656400002020000020200000c1
:103cd400200d00000a00000043680000616e00002f
:103ce4006e6500006c200000256400002042000086
:103cf40075740000746f00006e2000003131000004
:103d040020430000617000007475000072650000bb
:103d140020500000726500007373000065640000a9
:103d24002020000020200000200d00000a000000d8
:103d3400466c0000617300006820000049440000e4
:103d44002043000068650000636b000020530000fe
:103d5400756300006365000073660000756c000005
:103d64000d0a0000002a00002a200000466c000012
:103d740061730000682000004944000020430000f3
:103d840068650000636b0000204600006169000064
:103d94006c650000642000002a2a00000d0a00005f
:103da400004600006c6100007368000020570000aa
:103db4007269000074650000204500006e61000017
:103dc400626c00006520000053650000740d000063
:103dd4000a000000466c00006173000068200000c7
:103de40053740000617400007573000020520000d9
:103df4006567000020250000642000006861000061
:103e040073200000766100006c75000065200000de
:103e14003078000025300000327800000d0a0000e0
:103e2400004600006c61000073680000205500002b
:103e34006e690000717500006520000049440000af
:103e44002069000073200000307800002530000055
:103e540032580000253000003258000025300000a0
:103e64003258000025300000325800002530000090
:103e74003258000025300000325800002530000080
:103e84003258000025300000325800000d0a0000ae
:103e9400002a00002a200000466c00006173000024
:103ea400682000002d3e0000204100005031000039
:103eb4003330000032200000426f00006f740000b5
:103ec400737400006167000065200000436800000f
:103ed400656300006b200000546900006d650000fc
:103ee400642000006f750000742000002a2a00007e
:103ef4000d0a0000002a00002a2000004c61000086
:103f040073740000207200006561000064200000ea
:103f1400626f00006f74000073740000616700003a
:103f240065200000283000007836000030300000a2
:103f34003229000020760000616c000075650000e5
:103f44002069000073200000307800002534000050
:103f5400582000002a2a00000d0a00000046000034
:103f64006c61000073680000202d00003e200000fa
:103f74004150000031330000303200002042000084
:103f84006f6f0000747300007461000067650000c7
:103f94002043000068650000636b000020500000af
:103fa4006173000073650000642c0000204c000065
:103fb4006f6f00007065000064200000256400003d
:103fc40020740000696d0000657300000d0a000094
:103fd400004600006c61000073680000202d0000a2
:103fe4003e20000041500000313300003032000018
:103ff4002043000048450000434b00005355000097
:104004004d2000004d6100007463000068650000ed
:10401400642000003078000025300000345800008f
:104024000d0a0000002000002a2a0000204600009b
:104034006c61000073680000202d00003e20000029
:1040440041500000313300003032000020430000b2
:1040540048450000434b0000535500004d2000002c
:1040640045720000726f0000722000002a2a0000ce
:10407400204500007870000065630000746500004e
:10408400642000003078000025300000345800001f
:10409400204700006f7400002030000078250000e5
:1040a40030340000580d00000a00000041500000a8
:1040b40031330000303200002052000065610000fe
:1040c400646900006e67000020440000656200001f
:1040d40075670000204c00006f6700003a20000064
:1040e4000d0a00000044000056490000414200004f
:1040f400204f0000757400007075000074200000eb
:104104005365000074200000746f00002043000019
:10411400686100006e6e0000656c000020410000c4
:104124000d0a00000044000056490000414200000e
:10413400204f0000757400007075000074200000aa
:104144005365000074200000746f000020430000d9
:10415400686100006e6e0000656c00002042000083
:104164000d0a000000000000537900007374000081
:10417400656d00002069000073200000416c0000a0
:1041840069760000652100000d0a0000004300006c
:104194006820000041200000506f00007765000097
:1041a4007220000054650000737400002046000073
:1041b400414900004c210000210d00000a000000cc
:1041c4004368000020410000205000006f77000089
:1041d40065720000204700006f6f0000640d00004e
:1041e4000a00000043680000204200002050000044
:1041f4006f770000657200002054000065730000b2
:104204007420000046410000494c000021210000b8
:104214000d0a000000430000682000004220000056
:10422400506f00007765000072200000476f0000a7
:104234006f6400000d0a00000043000048410000c4
:1042440020410000503100003330000032200000d3
:1042540046720000616d000065200000636f00007d
:10426400756e0000742000006973000020250000b2
:10427400642000000d0a00000043000048410000d3
:104284002041000050310000333000003220000093
:104294005265000064200000417600006572000051
:1042a4006167000065200000697300002030000091
:1042b4007825000030340000582000000d0a00006a
:1042c400004300004842000020410000503100003b
:1042d400333000003220000046720000616d00009f
:1042e40065200000636f0000756e000074200000fc
:1042f4006973000020250000642000000d0a0000fe
:1043040000430000484200002041000050310000fa
:1043140033300000322000005265000064200000a9
:1043240041760000657200006167000065200000ae
:10433400697300002030000078250000303400004c
:10434400582000000d0a0000005000004342000005
:1043540020540000656d000070650000726100006b
:104364007475000072650000204100006c65000057
:10437400727400002121000020540000656d0000cb
:1043840070200000697300002025000064200000f4
:104394000d0a0000005000004342000020540000b9
:1043a400656d0000706500007261000074750000a6
:1043b400726500002069000073200000256400007d
:0c43c400204300000d0a00000000000073
:020000040000fa
:1043d0001000fa0060079800710798006000b800ac
:1043e000008fbe001b0037006000b8002007980057
:1043f000310798000c0037000081eb008081eb0052
:104400003e004100ae8049004007980051079800e7
:104410002e009000be00900061004000e080480047
:1044200020079800310798002e019000be019000ef
:10443000f0c7200001002000800f5100818f59003b
:10444000edff340012002000030020001e0f410089
:104450005e9749006e009000fe0090001e017800fb
:104460009e019000800f5100818f5900deff3500c2
:104470000080fa00000006001000fa0060079800b3
:10448000710798006000b800008fbe001b00370065
:104490006000b80020079800310798000c00370032
:1044a0000081eb008081eb003e004100ae804900be
:1044b00040079800510798002e009000be00900021
:1044c00061004000e0804800200798003107980014
:1044d0002e019000be01900020002000010020006d
:1044e000800f5100818f5900edff34001200200031
:1044f000030020001e0f41005e9749006e009000ef
:10450000fe0090001e0178009e019000800f510077
:10451000818f5900deff35000080fa0000000600a0
:104520000400fa00000f780011079800f00720003f
:104530009e007800808f500002003600f0072000b7
:10454000000f78009e009000f0072000808f500040
:1045500002003600f0072000100798001e009000af
:104560009e0f5000020036009e0078001107980050
:104570001e009000800178002200200081042000ad
:104580000000eb001c1a07001e0078008001780074
:1045900032002000810420000000eb00161a070002
:1045a00070032000801f7800a00a2900801f780077
:1045b00020062100d7f10700e487570020062100dc
:1045c000c7f10700004078001cf0b7001cd0bf0006
:1045d0000080fb0080007800200621005a0a0700b6
:1045e0000080fa00000006000200fa000000eb0064
:1045f000000f78000001eb00810420000000eb00b8
:104600009a1a0700000f78001e0078000080fa0058
:10461000000006000600fa002007980000042000b1
:10462000000f78000000eb00100798002e009000ab
:10463000e10f50000c003a009e0090001e00780030
:104640008101780000017800010620000000eb00e5
:10465000e919070002022000910c29002006210020
:1046600098f107000e0037002e009000e20f500076
:104670000b003a009e0090001e0078008101780037
:1046800000017800110620000000eb00da19070095
:1046900002022000910e29002006210089f1070066
:1046a000200621008ef10700004078001cf0b700c2
:1046b0001cd0bf000080fb00800078002006210095
:1046c000210a07000080fa00000006000400fa003a
:1046d000000f7800110798009e009000f0ff200066
:1046e000808f500002003600f0ff20001007980075
:1046f0001e007800e10f50000b003a009e00900071
:10470000f00f2000808060001e0090004800de0056
:104710008101780000017800010620000000eb0014
:10472000881907000d0037001e007800e20f5000c6
:104730000a003a009e009000f00f20008080600088
:104740001e0090004800de00810178000001780022
:10475000110620000000eb007a1907000080fa0023
:10476000000006000400fa002047980000c2b300d1
:10477000004f78002e4090000004e00003003a0053
:1047800000c2b300004f78000200370010c2b3002f
:10479000004f78002e4090000004e00025003a0011
:1047a0001e80fb008001eb002200200080007800ca
:1047b00020002000631907001e80fb008001eb0031
:1047c0003200200080007800200020005d190700e2
:1047d0001e80fb00830f2000620020008000780014
:1047e00020002000571907001e80fb000302200054
:1047f000720020008000780020002000511907007e
:104800001e80fb008001eb00420020008000780049
:10481000200020004b1907001e80fb008001eb00e8
:104820005200200080007800200020004519070079
:10483000270037002e409000e14f500024003a003e
:104840001e80fb008001eb00220020008000780029
:10485000200020003b1907001e80fb008001eb00b8
:104860003200200080007800200020003519070069
:104870001e80fb00430220006200200080007800c0
:10488000200020002f1907001e80fb008001eb0094
:104890007200200080007800200020002919070005
:1048a0001e80fb008001eb004200200080007800a9
:1048b00020002000231907001e80fb008001eb0070
:1048c0005200200080007800200020001d19070001
:1048d0000080fa00000006000600fa004047980039
:1048e00000c2b300004f78004e4090000004e0008a
:1048f00003003a0000c2b300004f78000200370006
:1049000010c2b300004f78001e80fb000001eb00d6
:104910008000780020002000d419070010079800bc
:104920001e0090000080fa00000006000600fa0059
:104930004047980000c2b300004f78004e409000fe
:104940000004e00003003a0000c2b300004f78000a
:104950000200370010c2b300004f78001e80fb0039
:10496000120020008000780020002000bf190700fe
:10497000100798001e0090000080fa00000006005a
:104980000800fa00404798003107980000c2b300c1
:10499000004f78004e4090000004e00003003a0011
:1049a00000c2b300004f78000200370010c2b3000d
:1049b000004f7800be009000f00f200000806000e3
:1049c000100798009e0090001e80fb008101780077
:1049d000220020008000780020002000d918070065
:1049e0000080fa00000006000800fa004047980026
:1049f0003107980000c2b300004f78004e4090008d
:104a00000004e00003003a0000c2b300004f780049
:104a10000200370010c2b300004f7800be009000c3
:104a2000f00f200000806000100798009e009000aa
:104a30001e80fb0081017800320020008000780099
:104a400020002000bf1807000080fa0000000600c8
:104a50000200fa00004f78001e40780041ff070076
:104a6000400620000100200059fe07001e4078008b
:104a70000004e00011003a008000eb001e407800c6
:104a8000bfff0700010420001e407800d6ff07008a
:104a9000c0122000010020004dfe07000108200088
:104aa0001e407800d0ff070052022000911029001c
:104ab0002006210083f00700160037001e40780012
:104ac000e14f500013003a00010420001e4078001e
:104ad000abff0700510020001e407800c2ff070016
:104ae000c01220000100200039fe0700010820004c
:104af0001e407800a2ff0700a10020001e407800a1
:104b0000b9ff070062022000e112290020062100ff
:104b10006cf007002006210071f0070000407800cb
:104b20001cf0b7001cd0bf000080fb0080007800a4
:104b300020062100040907000080fa00000006009a
:104b40000400fa0020479800d0c1b300004f78005d
:104b50002e409000e14f500003003a00d0c1b30056
:104b6000004f780002003700e0c1b300004f78002a
:104b70001e80fb008001eb002200200080007800f6
:104b8000200020006f1807001e80fb008001eb0052
:104b90003200200080007800200020006918070003
:104ba0001e80fb00f30f20006200200080007800d0
:104bb00020002000631807001e80fb007300200007
:104bc0007200200080007800200020005d1807009f
:104bd0001e80fb00f30f20004200200080007800c0
:104be00020002000571807001e80fb0073002000e3
:104bf000520020008000780020002000511807009b
:104c00000080fa00000006000400fa002047980027
:104c1000d0c1b300004f78002e409000e14f50000b
:104c200003003a00d0c1b300004f78000200370003
:104c3000e0c1b300004f78002e409000c0ff070095
:104c40004006200001002000e1fd07008000eb008d
:104c50002e40900048000700010820002e409000e0
:104c60005f0007002e409000e14f500005003a0021
:104c7000a2022000411529002006210011f00700a2
:104c8000070037002e409000e24f500004003a0029
:104c9000a2022000e11729002006210009f00700e8
:104ca000200621000ef00700004078001cf0b7003d
:104cb0001cd0bf000080fb0080007800200621008f
:104cc000a1080700100020000080fa000000060084
:104cd0000600fa0040479800d0c1b300004f7800aa
:104ce0004e409000e14f500003003a00d0c1b300a5
:104cf000004f780002003700e0c1b300004f780099
:104d00001e80fb000001eb008000780020002000e6
:104d1000d6180700100798001e0090000080fa00c7
:104d2000000006000600fa0040479800d0c1b3001a
:104d3000004f78004e409000e14f500003003a00d1
:104d4000d0c1b300004f780002003700e0c1b300cb
:104d5000004f78001e80fb001200200080007800c9
:104d600020002000c1180700100798001e009000c6
:104d70000080fa00000006000800fa004047980092
:104d800031079800d0c1b300004f78004e4090002a
:104d9000e14f500003003a00d0c1b300004f78004b
:104da00002003700e0c1b300004f7800be00900061
:104db000f00f200000806000100798009e00900017
:104dc0001e80fb0081017800220020008000780016
:104dd00020002000db1707000080fa00000006001a
:104de0000800fa004047980031079800d0c1b3008e
:104df000004f78004e409000e14f500003003a0011
:104e0000d0c1b300004f780002003700e0c1b3000a
:104e1000004f7800be009000f00f2000008060007e
:104e2000100798009e0090001e80fb008101780012
:104e3000320020008000780020002000c117070009
:104e40000080fa00000006000400fa001007980035
:104e50000000eb00000f780010c0b3009efe0700ba
:104e6000000f78001e009000e10f500002003a0091
:104e70001e00a000040037001e009000e20f50004a
:104e800001003a001e30a0009e00780010c0b30060
:104e9000bbfe070040062000010020004cfd07007b
:104ea0008000eb001e009000cb0107000080fa009c
:104eb000000006000400fa00100798000000eb0054
:104ec000000f780010c0b30083fe0700000f7800c9
:104ed0001e009000e10f500003003a00e00f200098
:104ee0001e0f6000050037001e009000e20f50000a
:104ef00002003a00700f20001e0f60009e00780034
:104f000010c0b3009efe07000080fa0000000600fb
:104f10000600fa00404798000040eb00004f780080
:104f20000040eb00104798000040eb00204798003d
:104f30004e409000c80007004e409000f50007006a
:104f40004e409000e14f500006003a000070ef0024
:104f5000d2012000811a29002006210059ef070004
:104f6000080037004e409000e24f500005003a0024
:104f70000170ef00d2012000511c29002006210001
:104f800050ef07002006210055ef07000040780091
:104f90001cf0b7001cd0bf000080fb008000780030
:104fa00020062100e80707004e409000a1060700f8
:104fb0004e4090000080fb00a3ff0700800c200003
:104fc0000100200002fd07004e409000e14f50001c
:104fd00011003a00907080004b00de0061406000dc
:104fe000204798002e409000e14f500005003a0005
:104ff000a2012000211e29002006210031ef070018
:105000001800370062022000c11f2900200621007d
:105010002cef0700130037004e409000e24f500085
:1050200010003a00907080004f00de0000407800d1
:10503000204798002e409000e14f500005003a00b4
:10504000a201200021222900200621001def0700d7
:105050000400370062022000c1232900200621003d
:1050600018ef0700200621001def07000040780020
:105070001cf0b7001cd0bf000080fb00800078004f
:1050800020062100b00707004e4090000080fb0082
:105090008000eb006b0307004006200001002000a9
:1050a000cbfc07004e4090000080fb008a05070003
:1050b000104798004006200001002000c4fc0700b3
:1050c0001e4fe8001e4090000081fb009e80fb0008
:1050d0004e4090000080fb00821f7800811f780006
:1050e000801f780020262900801f780020062100dc
:1050f00008ef0700e887570020062100f8ee0700b8
:10510000004078001cf0b7001cd0bf000080fb00fe
:1051100080007800200621008b0707001e409000c9
:105120000004a2000080fb000000ea004f00de0047
:105130000040780011c0b3001e417800e14f5100db
:10514000010036008040eb00014060000004e000f8
:10515000d4ff3a004e409000abfe0700400620000e
:10516000010020009afc07000080fa000000060001
:105170000200fa00004f78001e80fb004dff070080
:105180001e407800220007001e40780073000700d0
:105190001e407800c91107001e407800e14f500002
:1051a00006003a000070ef0002022000e129290009
:1051b00020062100c3ee0700080037001e407800db
:1051c000e24f500005003a000170ef00020220009b
:1051d000e12b290020062100baee0700200621005d
:1051e000bfee0700004078001cf0b7001cd0bf00e5
:1051f0000080fb0080007800200621005207070095
:105200001e4078000b0607000080fa000000060030
:105210000400fa00204798000000eb00000f78001f
:1052200010c0b300c1fd0700000f78002e409000b1
:10523000e14f500002003a001e00a00001003700bc
:105240001e20a0009e00780010c0b300e6fd0700fd
:105250000080fa00000006000400fa0020479800d1
:105260000000eb00000f780010c0b300affd070096
:10527000000f78002e409000e14f500003003a00ec
:10528000e00f20001e0f600002003700b00f20006a
:105290001e0f60009e00780010c0b300d2fd070012
:1052a0000080fa00000006000600fa00404798005f
:1052b0000000eb00100798000000eb00000f7800e2
:1052c00010c0b30099fd0700100798004e409000f1
:1052d000e14f500003003a001e009000610f600093
:1052e000020037001e009000640f60001e0078006e
:1052f0000000e00003003a004e409000c4ff0700a9
:10530000020037004e409000d3ff07000080fa00f3
:10531000000006000400fa00204798000000eb009f
:10532000000f780010c0b30080fd0700000f780068
:105330002e409000e14f500002003a001e10a000e5
:10534000010037001e30a0009e00780010c0b3009e
:10535000a5fd07000080fa00000006000400fa0026
:10536000204798000000eb00000f780010c0b30049
:105370006efd0700000f78002e409000e14f5000b6
:1053800003003a00d00f20001e0f6000020037001b
:10539000700f20001e0f60009e00780010c0b30048
:1053a00091fd07000080fa00000006000600fa00e8
:1053b000404798000000eb00100798000000eb0049
:1053c000000f780010c0b30058fd070010079800c8
:1053d0004e409000e14f500003003a001e00900044
:1053e000620f6000020037001e009000680f60002e
:1053f0001e0078000000e00003003a004e409000dc
:10540000c4ff0700020037004e409000d3ff0700a2
:105410000080fa00000006000200fa000000eb0025
:10542000000f780010c0b3002bfd0700000f7800bc
:105430001e60a0009e00780010c0b30050fd070061
:1054400010c0b30016f0b7000080fa00000006009c
:105450000200fa000000eb00000f780010c0b3005b
:105460001dfd0700000f7800f00b20001e0f6000ec
:105470009e00780010c0b30041fd07001670ef00d9
:105480000080fa00000006000200fa000000eb00b5
:10549000000f780010c0b3000ffd0700000f780068
:1054a0001e70a0009e00780010c0b30034fd0700fd
:1054b00010c0b30017f0b7000080fa00000006002b
:1054c0000200fa000000eb00000f780010c0b300eb
:1054d00001fd0700000f7800f00720001e0f60009c
:1054e0009e00780010c0b30025fd07001770ef0084
:1054f0000080fa00000006000200fa000000eb0045
:10550000000f78000040eb0008fd0700000f780056
:105510001e60a0009e0078000040eb0032fd0700f6
:1055200010c0b30018f0b7000080fa0000000600b9
:105530000200fa000000eb00000f78000040eb00d2
:10554000fafc0700000f7800f00b20001e0f60002f
:105550009e0078000040eb0023fd07001870ef006c
:105560000080fa00000006000200fa000000eb00d4
:10557000000f78000040eb00ecfc0700000f780003
:105580001e70a0009e0078000040eb0016fd070092
:1055900010c0b30019f0b7000080fa000000060048
:1055a0000200fa000000eb00000f78000040eb0062
:1055b000defc0700000f7800f00720001e0f6000df
:1055c0009e0078000040eb0007fd07001970ef0017
:1055d0000080fa00000006000400fa00000f7800c6
:1055e000110798001e0090000000e0000300320048
:1055f0001e007800b1000700ae0037001e007800e2
:10560000e10f500050003a0013082000c2002000b3
:10561000d103200010002000ca150700130020004d
:10562000c2042000d103200010002000c51507008f
:10563000d305200082052000d103200010002000a7
:10564000c015070083012000c2052000d1032000ff
:1056500010002000bb15070083072000d2052000a2
:10566000d103200010002000b6150700830720009a
:1056700052062000d103200010002000b1150700c1
:1056800023042000e2052000d103200010002000a8
:10569000ac150700a303200062062000d103200000
